:100000000C9438000C9455000C9455000C94550039
:100010000C9455000C9455000C9455000C9455000C
:100020000C9455000C9455000C9455000C945500FC
:100030000C9455000C9455000C9455000C945500EC
:100040000C9455000C9455000C9455000C945500DC
:100050000C9455000C9455000C9455000C945500CC
:100060000C9455000C9455000C9455000C945500BC
:1000700011241FBECFEFD4E0DEBFCDBF11E0A0E062
:10008000B1E0E2EDFEE002C005900D92AE3FB10797
:10009000D9F722E0AEEFB1E001C01D92AE30B20759
:1000A000E1F70E9457000C9467070C9400000E942F
:1000B00078000E9426010E949C00CAE0D1E081E005
:1000C00090E00E9428011F928F93DF93CF930E94AC
:1000D000B9020E946C010F900F900F900F90EFCF1C
:1000E0005D9BFECF8CB908955F9BFECF8CB10895C8
:1000F00010BC8FE189B988E98AB986E880BD64E7D8
:1001000070E080E790E00E946E0208950F931F93C5
:10011000CF93FC018081882359F08F01C0E00E94B9
:100120007000CF5FF801EC0FF11D80818111F7CFD6
:10013000CF911F910F91089580E885BF0895FC012C
:10014000F85E80810895CF92DF92EF92FF920F9335
:100150001F93CF93DF9388E191E00E94CF020E942A
:100160005E027C010E946302C12CD12CC0E0D0E071
:100170000EE211E00E945E02F601F85E80832081AB
:100180002817A1F099279F938F931F922F93DF92A7
:10019000CF921F930F930E94B90221968DB79EB7FD
:1001A00008960FB6F8949EBF0FBE8DBF9FEFC91A79
:1001B000D90AC11488E0D806E9F6C7010E94630293
:1001C00000E010E0E12CF12C0F2EF7E6CF2EF1E04D
:1001D000DF2EF02D0E945E02F801F85E20812817C4
:1001E000B1F099279F938F931F922F931F930F9393
:1001F000DF92CF920E94B9029FEFE91AF90A8DB7F8
:100200009EB708960FB6F8949EBF0FBE8DBF0F5FC6
:100210001F4F011598E01907E9F6FF92EF92DF935F
:10022000CF9384EA91E09F938F930E94B9020F903D
:100230000F900F900F900F900F90DF91CF911F9123
:100240000F91FF90EF90DF90CF9008953098089530
:100250008230910571F018F4019739F015C08330A0
:10026000910559F0049769F00FC084E08093001461
:100270000BC085E08093001407C086E080930014D3
:1002800003C087E0809300142899FECF81E48A950B
:10029000F1F700C08091001408950F931F93FC01A3
:1002A000E61BF70B021B130BE09FC001E19F900DB3
:1002B000F09F900D1124FA01E61BF70BBF010E947D
:1002C000EA01CB01820F931F1F910F910895BA98F5
:1002D00088B3847088BB0895CF93DF9381E090E06A
:1002E0000E942801C0E0D2E088838FEF9FE201974F
:1002F000F1F700C0000082E090E00E9428018983AD
:100300008091000290910102DF91CF910895CF93E7
:10031000DF930E946C01392FEEEFF1E028EC482FBB
:100320004203C0011124CFEFD0E0BE010E94EA01D8
:10033000AB014456510940833203C0011124BE0170
:100340000E94EA016456710961838091FE019091D7
:10035000FF01DF91CF9108950E948701292F482F37
:10036000592F93E1980F973220F493E1920F97322F
:1003700008F1082E000C990B99231CF49195819596
:100380009109022E000C330B33231CF43195219577
:100390003109281739072CF445317CF485E090E0C9
:1003A0000895821793072CF4553154F483E090E0BC
:1003B0000895089581E090E0089584E090E0089524
:1003C00082E090E0089586B382FB882780F991E06F
:1003D0008927089597FB072E16F4009407D077FD20
:1003E00009D00E94FE0107FC05D03EF4909581954E
:1003F0009F4F0895709561957F4F0895AA1BBB1B71
:1004000051E107C0AA1FBB1FA617B70710F0A61B14
:10041000B70B881F991F5A95A9F780959095BC0135
:10042000CD0108958F929F92AF92BF92CF92DF92AB
:10043000EF92FF92CF93DF93EC01688179818A81FB
:100440009B81611571058105910521F464E279EDC7
:100450008BE597E02DE133EF41E050E00E94CD06BF
:1004600049015A019B01AC01A7EAB1E40E94EC06E4
:100470006B017C01ACEEB4EFA50194010E94FA0679
:10048000DC01CB018C0D9D1DAE1DBF1DB7FF03C050
:100490000197A109B04888839983AA83BB839F777A
:1004A000DF91CF91FF90EF90DF90CF90BF90AF9012
:1004B0009F908F9008950E941202089580E091E02D
:1004C0000E9412020895A0E0B0E080930001909392
:1004D0000101A0930201B093030108950F931F93AC
:1004E000CF93DF93009731F46115710519F480E023
:1004F00090E03AC08B01EC016EE070E081E090E0AA
:100500000E94D104FC01892B91F380E883830115BB
:10051000110571F01387028781E8838380910402BB
:1005200090910502892B21F4F0930502E0930402D7
:100530002097C9F0D187C0878381826083838091AF
:10054000060290910702892B71F4F0930702E09361
:1005500006028091080290910902892B21F4F09300
:100560000902E0930802CF01DF91CF911F910F9113
:100570000895A0E0B0E0EFEBF2E00C940F07AE01BD
:100580004B5F5F4FFA0161917191AF01809106025B
:10059000909107020E94FF02E2E00C942B070F9358
:1005A0001F93CF93DF93E0910602F091070223811E
:1005B00021FF1BC08C01D0E0C0E0F80181918F01C8
:1005C0006091060270910702DB011896ED91FC9193
:1005D0001997882331F00995892B79F3DFEFCFEF55
:1005E000ECCF8AE00995892B19F08FEF9FEF02C0BD
:1005F0008D2F9C2FDF91CF911F910F910895ACE02B
:10060000B0E0E5E0F3E00C94FF067C016B018A01A9
:10061000FC0117821682838181FFBDC1CE01019644
:100620004C01F7019381F60193FD859193FF819130
:100630006F01882309F4ABC1853239F493FD8591AC
:1006400093FF81916F01853229F4B70190E00E94F8
:100650003706E7CF512C312C20E02032A0F48B322A
:1006600069F030F4803259F0833269F420612CC093
:100670008D3239F0803339F4216026C02260246045
:1006800023C0286021C027FD27C030ED380F3A3045
:1006900078F426FF06C0FAE05F9E300D1124532E39
:1006A00013C08AE0389E300D1124332E20620CC016
:1006B0008E3221F426FD6BC1206406C08C3611F405
:1006C000206802C0883641F4F60193FD859193FFBE
:1006D00081916F018111C1CF982F9F7D95549330E7
:1006E00028F40C5F1F4FFFE3F9830DC0833631F010
:1006F000833771F0833509F05BC022C0F801808137
:1007000089830E5F1F4F44244394512C540115C01C
:100710003801F2E06F0E711CF801A080B18026FF55
:1007200003C0652D70E002C06FEF7FEFC5012C871D
:100730000E942C062C0183012C852F77222E17C0B6
:100740003801F2E06F0E711CF801A080B18026FF25
:1007500003C0652D70E002C06FEF7FEFC5012C87ED
:100760000E941A062C012C852068222E830123FC6E
:100770001BC0832D90E048165906B0F4B70180E203
:1007800090E00E9437063A94F4CFF50127FC85915A
:1007900027FE81915F01B70190E00E94370631107A
:1007A0003A94F1E04F1A51084114510471F7E5C031
:1007B000843611F0893639F5F80127FF07C06081CA
:1007C0007181828193810C5F1F4F08C060817181AC
:1007D000072E000C880B990B0E5F1F4F2F76722E81
:1007E00097FF09C090958095709561957F4F8F4FC9
:1007F0009F4F2068722E2AE030E0A4010E946F060D
:10080000A82EA81844C0853729F42F7EB22E2AE0DE
:1008100030E025C0F22FF97FBF2E8F36C1F018F4DB
:10082000883579F0B4C0803719F0883721F0AFC02F
:100830002F2F2061B22EB4FE0DC08B2D8460B82EF8
:1008400009C024FF0AC09F2F9660B92E06C028E079
:1008500030E005C020E130E002C020E132E0F801E4
:10086000B7FE07C060817181828193810C5F1F4F49
:1008700006C06081718180E090E00E5F1F4FA4018F
:100880000E946F06A82EA818FB2DFF777F2E76FEFC
:100890000BC0372D3E7FA51450F474FE0AC072FCC5
:1008A00008C0372D3E7E05C0BA2C372D03C0BA2CA8
:1008B00001C0B52C34FF0DC0FE01EA0DF11D808191
:1008C000803311F4397E09C032FF06C0B394B3946B
:1008D00004C0832F867809F0B39433FD13C030FF32
:1008E00006C05A2CB31418F4530C5B18B32CB31471
:1008F00068F4B70180E290E03C870E943706B39429
:100900003C85F5CFB31410F43B1801C0312C34FFF3
:1009100012C0B70180E390E03C870E9437063C8517
:1009200032FF17C031FD03C088E790E002C088E5C0
:1009300090E0B7010CC0832F867859F031FF02C0D8
:100940008BE201C080E237FD8DE2B70190E00E94AA
:100950003706A51438F4B70180E390E00E9437060B
:100960005A94F7CFAA94F401EA0DF11D8081B701E2
:1009700090E00E943706A110F5CF332009F451CE44
:10098000B70180E290E00E9437063A94F6CFF70173
:100990008681978102C08FEF9FEF2C96E2E10C9445
:1009A0001B070F931F93CF93DF93869F8001879F31
:1009B000100D969F100D1124C8010E94ED04EC014A
:1009C000009729F0A80160E070E00E942506CE01A2
:1009D000DF91CF911F910F910895CF93DF938230D4
:1009E000910510F482E090E0E0910C02F0910D028C
:1009F00020E030E0C0E0D0E0309711F1408151813B
:100A000048175907C0F04817590761F4828193814C
:100A1000209719F09B838A832BC090930D028093BB
:100A20000C0226C02115310519F04217530718F49E
:100A30009A01BE01DF01EF010280F381E02DDCCFDE
:100A40002115310509F1281B390B2430310590F4AB
:100A500012968D919C9113976115710521F0FB0100
:100A60009383828304C090930D0280930C02FD0156
:100A7000329644C0FD01E20FF31F819391932250FF
:100A800031092D933C933AC020910A0230910B0218
:100A9000232B41F4209106013091070130930B0282
:100AA00020930A022091040130910501211531059E
:100AB00041F42DB73EB74091080150910901241B24
:100AC000350BE0910A02F0910B02E217F307A0F454
:100AD0002E1B3F0B2817390778F0AC014E5F5F4F94
:100AE0002417350748F04E0F5F1F50930B024093B9
:100AF0000A028193919302C0E0E0F0E0CF01DF9120
:100B0000CF9108950F931F93CF93DF93009709F42C
:100B10008CC0FC0132971382128200910C0210915A
:100B20000D020115110581F420813181820F931F7F
:100B300020910A0230910B022817390779F5F093BA
:100B40000B02E0930A0271C0D80140E050E0AE17FA
:100B5000BF0750F412962D913C911397AD012115CA
:100B6000310509F1D901F3CF9D01DA0133832283E5
:100B700060817181860F971F8217930769F4EC01DA
:100B800028813981260F371F2E5F3F4F3183208305
:100B90008A819B8193838283452B29F4F0930D02F4
:100BA000E0930C0242C01396FC93EE931297ED0172
:100BB000499159919E01240F351FE217F30771F4F3
:100BC00080819181840F951F029611969C938E933C
:100BD0008281938113969C938E931297E0E0F0E0CC
:100BE000D80112968D919C911397009719F0F801F6
:100BF0008C01F6CF8D919C9198012E5F3F4F820F13
:100C0000931F20910A0230910B022817390769F4CB
:100C1000309729F410920D0210920C0202C0138238
:100C2000128210930B0200930A02DF91CF911F9161
:100C30000F910895FC010590615070400110D8F7A4
:100C4000809590958E0F9F1F0895DC0101C06D93D4
:100C500041505040E0F70895FC0161507040019010
:100C60000110D8F7809590958E0F9F1F08950F93D0
:100C70001F93CF93DF93FB01238121FD03C08FEFEF
:100C80009FEF28C022FF16C04681578124813581FD
:100C90004217530744F4A081B1819D012F5F3F4F5C
:100CA000318320838C93268137812F5F3F4F378399
:100CB000268310C0EB01092F182F0084F185E02D49
:100CC0000995892BE1F68E819F8101969F838E8302
:100CD000812F902FDF91CF911F910F910895FA01ED
:100CE000AA27283051F1203181F1E8946F936E7F6B
:100CF0006E5F7F4F8F4F9F4FAF4FB1E03ED0B4E05C
:100D00003CD0670F781F891F9A1FA11D680F791F9C
:100D10008A1F911DA11D6A0F711D811D911DA11DAD
:100D200020D009F468943F912AE0269F11243019BD
:100D3000305D3193DEF6CF010895462F4770405D58
:100D40004193B3E00FD0C9F7F6CF462F4F70405D07
:100D50004A3318F0495D31FD4052419302D0A9F762
:100D6000EACFB4E0A6959795879577956795BA955C
:100D7000C9F700976105710508959B01AC010A2E22
:100D800006945795479537952795BA95C9F7620FF9
:100D9000731F841F951FA01D0895052E97FB1EF439
:100DA00000940E94E40657FD07D00E94360707FC16
:100DB00003D04EF40C94E40650954095309521955F
:100DC0003F4F4F4F5F4F0895909580957095619577
:100DD0007F4F8F4F9F4F08950E945807A59F900DFA
:100DE000B49F900DA49F800D911D11240895B7FF0D
:100DF0000C94EC060E94EC06821B930B08952F9234
:100E00003F924F925F926F927F928F929F92AF929A
:100E1000BF92CF92DF92EF92FF920F931F93CF93E7
:100E2000DF93CDB7DEB7CA1BDB0B0FB6F894DEBF7E
:100E30000FBECDBF09942A88398848885F846E84A4
:100E40007D848C849B84AA84B984C884DF80EE80EE
:100E5000FD800C811B81AA81B981CE0FD11D0FB6F7
:100E6000F894DEBF0FBECDBFED010895A1E21A2EAA
:100E7000AA1BBB1BFD010DC0AA1FBB1FEE1FFF1F3E
:100E8000A217B307E407F50720F0A21BB30BE40B8E
:100E9000F50B661F771F881F991F1A9469F76095D5
:100EA0007095809590959B01AC01BD01CF0108958F
:100EB000A29FB001B39FC001A39F700D811D11249B
:100EC000911DB29F700D811D1124911D0895F894FC
:020ED000FFCF52
:100ED2000100000000000E02200041444320766120
:100EE2006C75653A202564005374617274696E678B
:100EF200205352414D20746573742E2E2E0057726A
:100F0200697465207068617365206572726F723AE8
:100F1200206578745F72616D5B2534645D203D20CD
:100F220025303258202873686F756C642062652002
:100F320025303258290A0052657472696576616CEF
:100F4200207068617365206572726F723A206578ED
:100F5200745F72616D5B2534645D203D2025303203
:100F620058202873686F756C6420626520253032C2
:100F720058290A005352414D207465737420636FDF
:100F82006D706C657465642077697468200A253415
:100F920064206572726F727320696E207772697451
:100FA2006520706861736520616E64200A2534646F
:100FB200206572726F727320696E20726574726935
:0E0FC2006576616C2070686173650A0A000034
:00000001FF
