:100000000C9438000C9455000C9455000C94550039
:100010000C9455000C9455000C9455000C9455000C
:100020000C9455000C9455000C9455000C945500FC
:100030000C9455000C9455000C9455000C945500EC
:100040000C9455000C9455000C9455000C945500DC
:100050000C9455000C9455000C9455000C945500CC
:100060000C9455000C9455000C9455000C945500BC
:1000700011241FBECFEFD4E0DEBFCDBF12E0A0E061
:10008000B1E0EEEFFEE002C005900D92AC31B10799
:10009000D9F722E0ACE1B2E001C01D92AC32B20768
:1000A000E1F70E9457000C947D070C9400000E9419
:1000B0008E000E943C010E94B2000AE011E0C8E1FB
:1000C000D1E081E090E00E943E011F928F931F9348
:1000D0000F930E94CF020E948201292F092E000C4B
:1000E000330B3F939F93282F082E000C330B3F9325
:1000F0008F93DF93CF930E94CF028DB79EB70A965E
:100100000FB6F8949EBF0FBE8DBFDBCF5D9BFECFB9
:100110008CB908955F9BFECF8CB1089510BC8FE120
:1001200089B988E98AB986E880BD6AE870E086E81E
:1001300090E00E94840208950F931F93CF93FC01D7
:100140008081882359F08F01C0E00E948600CF5F34
:10015000F801EC0FF11D80818111F7CFCF911F9134
:100160000F91089580E885BF0895FC01F85E8081B5
:100170000895CF92DF92EF92FF920F931F93CF9348
:10018000DF9386E391E00E94E5020E9474027C0105
:100190000E947902C12CD12CC0E0D0E00CE411E027
:1001A0000E947402F601F85E808320812817A1F076
:1001B00099279F938F931F922F93DF92CF921F9334
:1001C0000F930E94CF0221968DB79EB708960FB667
:1001D000F8949EBF0FBE8DBF9FEFC91AD90AC114F4
:1001E00088E0D806E9F6C7010E94790200E010E035
:1001F000E12CF12C0F2EF5E8CF2EF1E0DF2EF02DC3
:100200000E947402F801F85E20812817B1F0992746
:100210009F938F931F922F931F930F93DF92CF92F1
:100220000E94CF029FEFE91AF90A8DB79EB7089690
:100230000FB6F8949EBF0FBE8DBF0F5F1F4F011505
:1002400098E01907E9F6FF92EF92DF93CF9382ECE3
:1002500091E09F938F930E94CF020F900F900F9089
:100260000F900F900F90DF91CF911F910F91FF9002
:10027000EF90DF90CF9008953098089582309105E7
:1002800071F018F4019739F015C08330910559F0D9
:10029000049769F00FC084E0809300140BC085E0E0
:1002A0008093001407C086E08093001403C087E0A9
:1002B000809300142899FECF81E48A95F1F700C05D
:1002C0008091001408950F931F93FC01E61BF70B18
:1002D000021B130BE09FC001E19F900DF09F900D5A
:1002E0001124FA01E61BF70BBF010E940002CB01AB
:1002F000820F931F1F910F910895BA9888B384704D
:1003000088BB0895CF93DF9381E090E00E943E0187
:10031000CEE1D2E088838FEF9FE20197F1F700C032
:10032000000082E090E00E943E01898380911E02DD
:1003300090911F02DF91CF910895CF93DF930E9498
:100340008201392FECE1F2E028EC482F4203C00192
:100350001124CFEFD0E0BE010E940002AB01445651
:10036000510940833203C0011124BE010E940002E2
:1003700064567109618380911C0290911D02DF9186
:10038000CF9108950E949D01292F482F592F93E165
:10039000980F973220F493E1920F973208F1082ECC
:1003A000000C990B99231CF4919581959109022ECB
:1003B000000C330B33231CF4319521953109281798
:1003C00039072CF445317CF485E090E008958217DC
:1003D00093072CF4553154F483E090E00895089588
:1003E00081E090E0089584E090E0089582E090E05C
:1003F000089586B382FB882780F991E089270895C4
:1004000097FB072E16F4009407D077FD09D00E94C1
:10041000140207FC05D03EF4909581959F4F0895F6
:10042000709561957F4F0895AA1BBB1B51E107C0D2
:10043000AA1FBB1FA617B70710F0A61BB70B881F74
:10044000991F5A95A9F780959095BC01CD01089503
:100450008F929F92AF92BF92CF92DF92EF92FF92D4
:10046000CF93DF93EC01688179818A819B8161154B
:1004700071058105910521F464E279ED8BE597E042
:100480002DE133EF41E050E00E94E30649015A01BB
:100490009B01AC01A7EAB1E40E9402076B017C0159
:1004A000ACEEB4EFA50194010E941007DC01CB0172
:1004B0008C0D9D1DAE1DBF1DB7FF03C00197A10987
:1004C000B04888839983AA83BB839F77DF91CF91BC
:1004D000FF90EF90DF90CF90BF90AF909F908F9064
:1004E00008950E942802089580E091E00E94280269
:1004F0000895A0E0B0E08093000190930101A093E3
:100500000201B093030108950F931F93CF93DF93DC
:10051000009731F46115710519F480E090E03AC05C
:100520008B01EC016EE070E081E090E00E94E70456
:10053000FC01892B91F380E883830115110571F08B
:100540001387028781E8838380912202909123029E
:10055000892B21F4F0932302E09322022097C9F023
:10056000D187C087838182608383809124029091A8
:100570002502892B71F4F0932502E09324028091E7
:10058000260290912702892B21F4F0932702E09311
:100590002602CF01DF91CF911F910F910895A0E026
:1005A000B0E0E5EDF2E00C942507AE014B5F5F4F44
:1005B000FA0161917191AF0180912402909125021D
:1005C0000E941503E2E00C9441070F931F93CF9311
:1005D000DF93E0912402F0912502238121FF1BC0CB
:1005E0008C01D0E0C0E0F80181918F01609124027C
:1005F00070912502DB011896ED91FC9119978823E3
:1006000031F00995892B79F3DFEFCFEFECCF8AE05A
:100610000995892B19F08FEF9FEF02C08D2F9C2F2A
:10062000DF91CF911F910F910895ACE0B0E0EBE125
:10063000F3E00C9415077C016B018A01FC01178221
:100640001682838181FFBDC1CE0101964C01F70165
:100650009381F60193FD859193FF81916F0188232A
:1006600009F4ABC1853239F493FD859193FF8191F3
:100670006F01853229F4B70190E00E944D06E7CF63
:10068000512C312C20E02032A0F48B3269F030F470
:10069000803259F0833269F420612CC08D3239F0F8
:1006A000803339F4216026C02260246023C0286092
:1006B00021C027FD27C030ED380F3A3078F426FFEF
:1006C00006C0FAE05F9E300D1124532E13C08AE05D
:1006D000389E300D1124332E20620CC08E3221F44E
:1006E00026FD6BC1206406C08C3611F4206802C060
:1006F000883641F4F60193FD859193FF81916F0156
:100700008111C1CF982F9F7D9554933028F40C5FB1
:100710001F4FFFE3F9830DC0833631F0833771F04B
:10072000833509F05BC022C0F801808189830E5FA8
:100730001F4F44244394512C540115C03801F2E05A
:100740006F0E711CF801A080B18026FF03C0652DDB
:1007500070E002C06FEF7FEFC5012C870E94420658
:100760002C0183012C852F77222E17C03801F2E04F
:100770006F0E711CF801A080B18026FF03C0652DAB
:1007800070E002C06FEF7FEFC5012C870E9430063A
:100790002C012C852068222E830123FC1BC0832D75
:1007A00090E048165906B0F4B70180E290E00E944C
:1007B0004D063A94F4CFF50127FC859127FE8191EF
:1007C0005F01B70190E00E944D0631103A94F1E0CC
:1007D0004F1A51084114510471F7E5C0843611F0E5
:1007E000893639F5F80127FF07C060817181828160
:1007F00093810C5F1F4F08C060817181072E000C30
:10080000880B990B0E5F1F4F2F76722E97FF09C032
:1008100090958095709561957F4F8F4F9F4F206881
:10082000722E2AE030E0A4010E948506A82EA818A6
:1008300044C0853729F42F7EB22E2AE030E025C04F
:10084000F22FF97FBF2E8F36C1F018F4883579F07A
:10085000B4C0803719F0883721F0AFC02F2F206146
:10086000B22EB4FE0DC08B2D8460B82E09C024FFBB
:100870000AC09F2F9660B92E06C028E030E005C060
:1008800020E130E002C020E132E0F801B7FE07C00D
:1008900060817181828193810C5F1F4F06C06081EE
:1008A000718180E090E00E5F1F4FA4010E948506D9
:1008B000A82EA818FB2DFF777F2E76FE0BC0372DB4
:1008C0003E7FA51450F474FE0AC072FC08C0372D98
:1008D0003E7E05C0BA2C372D03C0BA2C01C0B52C02
:1008E00034FF0DC0FE01EA0DF11D8081803311F44B
:1008F000397E09C032FF06C0B394B39404C0832F7D
:10090000867809F0B39433FD13C030FF06C05A2C2B
:10091000B31418F4530C5B18B32CB31468F4B70178
:1009200080E290E03C870E944D06B3943C85F5CF71
:10093000B31410F43B1801C0312C34FF12C0B701BE
:1009400080E390E03C870E944D063C8532FF17C053
:1009500031FD03C088E790E002C088E590E0B70170
:100960000CC0832F867859F031FF02C08BE201C0A2
:1009700080E237FD8DE2B70190E00E944D06A5149C
:1009800038F4B70180E390E00E944D065A94F7CF07
:10099000AA94F401EA0DF11D8081B70190E00E9454
:1009A0004D06A110F5CF332009F451CEB70180E2F6
:1009B00090E00E944D063A94F6CFF7018681978128
:1009C00002C08FEF9FEF2C96E2E10C9431070F935A
:1009D0001F93CF93DF93869F8001879F100D969F73
:1009E000100D1124C8010E940305EC01009729F0A5
:1009F000A80160E070E00E943B06CE01DF91CF913C
:100A00001F910F910895CF93DF938230910510F4D9
:100A100082E090E0E0912A02F0912B0220E030E0A9
:100A2000C0E0D0E0309711F140815181481759075B
:100A3000C0F04817590761F482819381209719F01B
:100A40009B838A832BC090932B0280932A0226C01B
:100A50002115310519F04217530718F49A01BE0108
:100A6000DF01EF010280F381E02DDCCF211531059C
:100A700009F1281B390B2430310590F412968D9121
:100A80009C9113976115710521F0FB01938382837B
:100A900004C090932B0280932A02FD01329644C039
:100AA000FD01E20FF31F81939193225031092D93A1
:100AB0003C933AC02091280230912902232B41F423
:100AC00020910601309107013093290220932802DA
:100AD00020910401309105012115310541F42DB714
:100AE0003EB74091080150910901241B350BE0915C
:100AF0002802F0912902E217F307A0F42E1B3F0B06
:100B00002817390778F0AC014E5F5F4F241735077F
:100B100048F04E0F5F1F50932902409328028193A3
:100B2000919302C0E0E0F0E0CF01DF91CF91089512
:100B30000F931F93CF93DF93009709F48CC0FC01B0
:100B400032971382128200912A0210912B02011512
:100B5000110581F420813181820F931F2091280299
:100B6000309129022817390779F5F0932902E0938B
:100B7000280271C0D80140E050E0AE17BF0750F422
:100B800012962D913C911397AD012115310509F174
:100B9000D901F3CF9D01DA01338322836081718112
:100BA000860F971F8217930769F4EC01288139811A
:100BB000260F371F2E5F3F4F318320838A819B8111
:100BC00093838283452B29F4F0932B02E0932A022E
:100BD00042C01396FC93EE931297ED0149915991FF
:100BE0009E01240F351FE217F30771F48081918174
:100BF000840F951F029611969C938E938281938108
:100C000013969C938E931297E0E0F0E0D801129631
:100C10008D919C911397009719F0F8018C01F6CFF4
:100C20008D919C9198012E5F3F4F820F931F2091D1
:100C30002802309129022817390769F4309729F4DE
:100C400010922B0210922A0202C013821282109379
:100C5000290200932802DF91CF911F910F910895EF
:100C6000FC010590615070400110D8F78095909577
:100C70008E0F9F1F0895DC0101C06D9341505040BD
:100C8000E0F70895FC016150704001900110D8F721
:100C9000809590958E0F9F1F08950F931F93CF936C
:100CA000DF93FB01238121FD03C08FEF9FEF28C05D
:100CB00022FF16C046815781248135814217530790
:100CC00044F4A081B1819D012F5F3F4F3183208388
:100CD0008C93268137812F5F3F4F3783268310C047
:100CE000EB01092F182F0084F185E02D0995892B40
:100CF000E1F68E819F8101969F838E83812F902FB5
:100D0000DF91CF911F910F910895FA01AA27283002
:100D100051F1203181F1E8946F936E7F6E5F7F4FC8
:100D20008F4F9F4FAF4FB1E03ED0B4E03CD0670F44
:100D3000781F891F9A1FA11D680F791F8A1F911D97
:100D4000A11D6A0F711D811D911DA11D20D009F4E7
:100D500068943F912AE0269F11243019305D319329
:100D6000DEF6CF010895462F4770405D4193B3E012
:100D70000FD0C9F7F6CF462F4F70405D4A3318F0B9
:100D8000495D31FD4052419302D0A9F7EACFB4E06A
:100D9000A6959795879577956795BA95C9F7009722
:100DA0006105710508959B01AC010A2E06945795C3
:100DB000479537952795BA95C9F7620F731F841F1A
:100DC000951FA01D0895052E97FB1EF400940E9408
:100DD000FA0657FD07D00E944C0707FC03D04EF4DB
:100DE0000C94FA0650954095309521953F4F4F4F02
:100DF0005F4F089590958095709561957F4F8F4FC7
:100E00009F4F08950E946E07A59F900DB49F900D6F
:100E1000A49F800D911D11240895B7FF0C94020723
:100E20000E940207821B930B08952F923F924F92CC
:100E30005F926F927F928F929F92AF92BF92CF926A
:100E4000DF92EF92FF920F931F93CF93DF93CDB773
:100E5000DEB7CA1BDB0B0FB6F894DEBF0FBECDBFEB
:100E600009942A88398848885F846E847D848C84BC
:100E70009B84AA84B984C884DF80EE80FD800C81C5
:100E80001B81AA81B981CE0FD11D0FB6F894DEBFA8
:100E90000FBECDBFED010895A1E21A2EAA1BBB1B08
:100EA000FD010DC0AA1FBB1FEE1FFF1FA217B30736
:100EB000E407F50720F0A21BB30BE40BF50B661F4C
:100EC000771F881F991F1A9469F760957095809510
:100ED00090959B01AC01BD01CF010895A29FB00187
:100EE000B39FC001A39F700D811D1124911DB29F5E
:0E0EF000700D811D1124911D0895F894FFCFFF
:100EFE000100000000002C022000414443207661D6
:100F0E006C75653A20256400782076616C756520D5
:100F1E0069732025640A20792076616C75652069D5
:100F2E00732025640A005374617274696E672053CE
:100F3E0052414D20746573742E2E2E0057726974B3
:100F4E0065207068617365206572726F723A2065F4
:100F5E0078745F72616D5B2534645D203D202530B1
:100F6E003258202873686F756C64206265202530B6
:100F7E003258290A0052657472696576616C207068
:100F8E0068617365206572726F723A206578745F5E
:100F9E0072616D5B2534645D203D20253032582012
:100FAE002873686F756C642062652025303258296D
:100FBE000A005352414D207465737420636F6D7037
:100FCE006C657465642077697468200A2534642022
:100FDE006572726F727320696E2077726974652004
:100FEE00706861736520616E64200A253464206523
:100FFE0072726F727320696E207265747269657693
:0C100E00616C2070686173650A0A0000C4
:00000001FF
