:100000000C9438000C9423030C9455000C94550068
:100010000C9455000C9455000C9455000C9455000C
:100020000C9455000C9455000C9455000C945500FC
:100030000C9455000C9455000C9455000C945500EC
:100040000C9455000C9455000C9455000C945500DC
:100050000C9455000C9455000C9455000C945500CC
:100060000C9455000C9455000C9455000C945500BC
:1000700011241FBECFEFD4E0DEBFCDBF12E0A0E061
:10008000B1E0E2EAF1E102C005900D92AE30B107B5
:10009000D9F722E0AEE0B2E001C01D92A032B20773
:1000A000E1F70E9457000C94CF080C9400000E94C6
:1000B00080000E942E010E94A400CAE0D1E00E94AC
:1000C0007401292F092E000C330B3F939F93282F87
:1000D000082E000C330B3F938F93DF93CF930E9436
:1000E00021040F900F900F900F900F900F90E7CF7B
:1000F0005D9BFECF8CB908955F9BFECF8CB10895B8
:1001000010BC8FE189B988E98AB986E880BD6CE7BF
:1001100070E088E790E00E94D60308950F931F9344
:10012000CF93FC018081882359F08F01C0E00E94A9
:100130007800CF5FF801EC0FF11D80818111F7CFBE
:10014000CF911F910F91089580E885BF0895FC011C
:10015000F85E80810895CF92DF92EF92FF920F9325
:100160001F93CF93DF9388E291E00E9437040E94AF
:10017000C6037C010E94CB03C12CD12CC0E0D0E08F
:100180000EE311E00E94C603F601F85E8083208131
:100190002817A1F099279F938F931F922F93DF9297
:1001A000CF921F930F930E94210421968DB79EB783
:1001B00008960FB6F8949EBF0FBE8DBF9FEFC91A69
:1001C000D90AC11488E0D806E9F6C7010E94CB031A
:1001D00000E010E0E12CF12C0F2EF7E7CF2EF1E03C
:1001E000DF2EF02D0E94C603F801F85E208128174B
:1001F000B1F099279F938F931F922F931F930F9383
:10020000DF92CF920E9421049FEFE91AF90A8DB77D
:100210009EB708960FB6F8949EBF0FBE8DBF0F5FB6
:100220001F4F011598E01907E9F6FF92EF92DF934F
:10023000CF9384EB91E09F938F930E9421040F90C2
:100240000F900F900F900F900F90DF91CF911F9113
:100250000F91FF90EF90DF90CF9008953098089520
:100260008230910571F018F4019739F015C0833090
:10027000910559F0049769F00FC084E08093001451
:100280000BC085E08093001407C086E080930014C3
:1002900003C087E0809300142899FECF81E48A95FB
:1002A000F1F700C08091001408950F931F93FC0193
:1002B000E61BF70B021B130BE09FC001E19F900DA3
:1002C000F09F900D1124FA01E61BF70BBF010E946D
:1002D0005203CB01820F931F1F910F910895BA987B
:1002E00088B3847088BB0895CF93DF9381E090E05A
:1002F0000E943001C2E1D2E088838FEF9FE2019734
:10030000F1F700C0000082E090E00E943001898394
:100310008091120290911302DF91CF910895CF93B3
:10032000DF930E947401392FE0E1F2E028EC482FBE
:100330004203C0011124CFEFD0E0BE010E9452035E
:10034000AB014456510940833203C0011124BE0160
:100350000E9452036456710961838091100290914A
:100360001102DF91CF9108950E948F01292F482F0C
:10037000592F93E1980F973220F493E1920F97321F
:1003800008F1082E000C990B99231CF49195819586
:100390009109022E000C330B33231CF43195219567
:1003A0003109281739072CF445317CF485E090E0B9
:1003B0000895821793072CF4553154F483E090E0AC
:1003C0000895089581E090E0089584E090E0089514
:1003D00082E090E0089586B382FB882780F991E05F
:1003E00089270895BC9AC49ABD9ABF9ABE9A689A02
:1003F000709A6C9A6A9A6E9A08958FB9779BFECF1D
:10040000089580E00E94FD017799FECF8FB1089595
:10041000CF93C82FC49883E00E94FD018C2F0E94C7
:10042000FD010E940102C49ACF910895C49880EC06
:100430000E94FD01C49A0895CF93DF93D82FC62F51
:10044000C49882E00E94FD018D2F0E94FD018C2F37
:100450000E94FD01C49ADF91CF910895C4980E9433
:10046000FD01C49A08951F93CF93DF93182FD62FC1
:10047000C42FC49885E00E94FD01812F0E94FD01D8
:100480008D2F0E94FD018C2F0E94FD01C49ADF91E7
:10049000CF911F910895CF93C82F0E94F2010E941F
:1004A00016024C2F60EE8FE00E943302CF91089528
:1004B000C49880EA0E94FD010E940102C49A089536
:1004C0000E944B0241E061E08BE20E94330240E671
:1004D00060E680E60E94330285B785BF8BB78064F3
:1004E0008BBF08950F931F93CF938C01FC01608104
:1004F000718176956795769567957695679581E391
:100500000E941C02F80160816295660F607E82E3A2
:100510000E941C02F801628185E30E941C02F8011E
:100520008281882371F0C0E0F801EC0FF11D638136
:1005300086E38C0F0E941C02CF5FF8018281C817EE
:1005400098F381E80E942E02CF911F910F91089598
:1005500081E090E0089581E090E008959F92AF924D
:10056000BF92CF92DF92EF92FF920F931F93CF93A0
:10057000DF93CDB7DEB72B970FB6F894DEBF0FBE73
:10058000CDBF5C0181E60E940802C82E82E60E946F
:100590000802829586958770D12CCC0CDD1CCC0C82
:1005A000DD1CCC0CDD1CC82A85E60E9408028F7079
:1005B000982E81F07E0184E0E80EF11C06E6090D1C
:1005C00016E6812F0E940802F70181937F011F5FC9
:1005D0001013F7CFDA82C9829B828BE0FE0131963D
:1005E000D50101900D928A95E1F7C5012B960FB6C2
:1005F000F894DEBF0FBECDBFDF91CF911F910F9159
:10060000FF90EF90DF90CF90BF90AF909F900895B4
:1006100040E061E08CE20E9433020895CF93DF93C3
:10062000EC0180910E0290910F02019741F4CE01EE
:100630000E94AE0210920F0210920E0200C0CE0174
:10064000DF91CF9108951F920F920FB60F92112450
:100650002F933F934F935F936F937F938F939F93CA
:10066000AF93BF93EF93FF938CE20E94080280FF49
:1006700008C081E090E090930F0280930E020E94E8
:100680000803FF91EF91BF91AF919F918F917F915F
:100690006F915F914F913F912F910F900FBE0F90EF
:1006A0001F90189597FB072E16F4009407D077FD3E
:1006B00009D00E94660307FC05D03EF49095819511
:1006C0009F4F0895709561957F4F0895AA1BBB1B9E
:1006D00051E107C0AA1FBB1FA617B70710F0A61B42
:1006E000B70B881F991F5A95A9F780959095BC0163
:1006F000CD0108958F929F92AF92BF92CF92DF92D9
:10070000EF92FF92CF93DF93EC01688179818A8128
:100710009B81611571058105910521F464E279EDF4
:100720008BE597E02DE133EF41E050E00E94350882
:1007300049015A019B01AC01A7EAB1E40E945408A7
:100740006B017C01ACEEB4EFA50194010E9462083C
:10075000DC01CB018C0D9D1DAE1DBF1DB7FF03C07D
:100760000197A109B04888839983AA83BB839F77A7
:10077000DF91CF91FF90EF90DF90CF90BF90AF903F
:100780009F908F9008950E947A03089580E091E0F1
:100790000E947A030895A0E0B0E080930001909356
:1007A0000101A0930201B093030108950F931F93D9
:1007B000CF93DF93009731F46115710519F480E050
:1007C00090E03AC08B01EC016EE070E081E090E0D7
:1007D0000E943906FC01892B91F380E8838301157F
:1007E000110571F01387028781E8838380911602D7
:1007F00090911702892B21F4F0931702E0931602CF
:100800002097C9F0D187C0878381826083838091DC
:10081000180290911902892B71F4F0931902E09358
:10082000180280911A0290911B02892B21F4F093F7
:100830001B02E0931A02CF01DF91CF911F910F911C
:100840000895A0E0B0E0E7E2F4E00C947708AE0190
:100850004B5F5F4FFA0161917191AF018091180276
:10086000909119020E946704E2E00C9493080F93A0
:100870001F93CF93DF93E0911802F0911902238127
:1008800021FF1BC08C01D0E0C0E0F80181918F01F5
:100890006091180270911902DB011896ED91FC919C
:1008A0001997882331F00995892B79F3DFEFCFEF82
:1008B000ECCF8AE00995892B19F08FEF9FEF02C0EA
:1008C0008D2F9C2FDF91CF911F910F910895ACE058
:1008D000B0E0EDE6F4E00C9467087C016B018A015E
:1008E000FC0117821682838181FFBDC1CE01019672
:1008F0004C01F7019381F60193FD859193FF81915E
:100900006F01882309F4ABC1853239F493FD8591D9
:1009100093FF81916F01853229F4B70190E00E9425
:100920009F07E7CF512C312C20E02032A0F48B32EE
:1009300069F030F4803259F0833269F420612CC0C0
:100940008D3239F0803339F4216026C02260246072
:1009500023C0286021C027FD27C030ED380F3A3072
:1009600078F426FF06C0FAE05F9E300D1124532E66
:1009700013C08AE0389E300D1124332E20620CC043
:100980008E3221F426FD6BC1206406C08C3611F432
:10099000206802C0883641F4F60193FD859193FFEB
:1009A00081916F018111C1CF982F9F7D9554933014
:1009B00028F40C5F1F4FFFE3F9830DC0833631F03D
:1009C000833771F0833509F05BC022C0F801808164
:1009D00089830E5F1F4F44244394512C540115C04A
:1009E0003801F2E06F0E711CF801A080B18026FF83
:1009F00003C0652D70E002C06FEF7FEFC5012C874B
:100A00000E9494072C0183012C852F77222E17C07A
:100A10003801F2E06F0E711CF801A080B18026FF52
:100A200003C0652D70E002C06FEF7FEFC5012C871A
:100A30000E9482072C012C852068222E830123FC32
:100A40001BC0832D90E048165906B0F4B70180E230
:100A500090E00E949F073A94F4CFF50127FC85911E
:100A600027FE81915F01B70190E00E949F0731103E
:100A70003A94F1E04F1A51084114510471F7E5C05E
:100A8000843611F0893639F5F80127FF07C06081F7
:100A90007181828193810C5F1F4F08C060817181D9
:100AA000072E000C880B990B0E5F1F4F2F76722EAE
:100AB00097FF09C090958095709561957F4F8F4FF6
:100AC0009F4F2068722E2AE030E0A4010E94D707D1
:100AD000A82EA81844C0853729F42F7EB22E2AE00C
:100AE00030E025C0F22FF97FBF2E8F36C1F018F409
:100AF000883579F0B4C0803719F0883721F0AFC05D
:100B00002F2F2061B22EB4FE0DC08B2D8460B82E25
:100B100009C024FF0AC09F2F9660B92E06C028E0A6
:100B200030E005C020E130E002C020E132E0F80111
:100B3000B7FE07C060817181828193810C5F1F4F76
:100B400006C06081718180E090E00E5F1F4FA401BC
:100B50000E94D707A82EA818FB2DFF777F2E76FEC0
:100B60000BC0372D3E7FA51450F474FE0AC072FCF2
:100B700008C0372D3E7E05C0BA2C372D03C0BA2CD5
:100B800001C0B52C34FF0DC0FE01EA0DF11D8081BE
:100B9000803311F4397E09C032FF06C0B394B39498
:100BA00004C0832F867809F0B39433FD13C030FF5F
:100BB00006C05A2CB31418F4530C5B18B32CB3149E
:100BC00068F4B70180E290E03C870E949F07B394ED
:100BD0003C85F5CFB31410F43B1801C0312C34FF21
:100BE00012C0B70180E390E03C870E949F073C85DC
:100BF00032FF17C031FD03C088E790E002C088E5EE
:100C000090E0B7010CC0832F867859F031FF02C005
:100C10008BE201C080E237FD8DE2B70190E00E94D7
:100C20009F07A51438F4B70180E390E00E949F0766
:100C30005A94F7CFAA94F401EA0DF11D8081B7010F
:100C400090E00E949F07A110F5CF332009F451CE08
:100C5000B70180E290E00E949F073A94F6CFF70137
:100C60008681978102C08FEF9FEF2C96E2E10C9472
:100C700083080F931F93CF93DF93869F8001879FF5
:100C8000100D969F100D1124C8010E945506EC010D
:100C9000009729F0A80160E070E00E948D07CE0166
:100CA000DF91CF911F910F910895CF93DF93823001
:100CB000910510F482E090E0E0911E02F0911F0295
:100CC00020E030E0C0E0D0E0309711F14081518168
:100CD00048175907C0F04817590761F4828193817A
:100CE000209719F09B838A832BC090931F028093D7
:100CF0001E0226C02115310519F04217530718F4BA
:100D00009A01BE01DF01EF010280F381E02DDCCF0B
:100D10002115310509F1281B390B2430310590F4D8
:100D200012968D919C9113976115710521F0FB012D
:100D30009383828304C090931F0280931E02FD015F
:100D4000329644C0FD01E20FF31F8193919322502C
:100D500031092D933C933AC020911C0230911D0221
:100D6000232B41F4209106013091070130931D029D
:100D700020931C02209104013091050121153105B9
:100D800041F42DB73EB74091080150910901241B51
:100D9000350BE0911C02F0911D02E217F307A0F45D
:100DA0002E1B3F0B2817390778F0AC014E5F5F4FC1
:100DB0002417350748F04E0F5F1F50931D024093D4
:100DC0001C028193919302C0E0E0F0E0CF01DF913B
:100DD000CF9108950F931F93CF93DF93009709F45A
:100DE0008CC0FC0132971382128200911E02109176
:100DF0001F020115110581F420813181820F931F9B
:100E000020911C0230911D022817390779F5F093C3
:100E10001D02E0931C0271C0D80140E050E0AE1703
:100E2000BF0750F412962D913C911397AD012115F7
:100E3000310509F1D901F3CF9D01DA013383228312
:100E400060817181860F971F8217930769F4EC0107
:100E500028813981260F371F2E5F3F4F3183208332
:100E60008A819B8193838283452B29F4F0931F020F
:100E7000E0931E0242C01396FC93EE931297ED018D
:100E8000499159919E01240F351FE217F30771F420
:100E900080819181840F951F029611969C938E9369
:100EA0008281938113969C938E931297E0E0F0E0F9
:100EB000D80112968D919C911397009719F0F80123
:100EC0008C01F6CF8D919C9198012E5F3F4F820F40
:100ED000931F20911C0230911D022817390769F4D5
:100EE000309729F410921F0210921E0202C0138242
:100EF000128210931D0200931C02DF91CF911F916B
:100F00000F910895FC010590615070400110D8F7D1
:100F1000809590958E0F9F1F0895DC0101C06D9301
:100F200041505040E0F70895FC016150704001903D
:100F30000110D8F7809590958E0F9F1F08950F93FD
:100F40001F93CF93DF93FB01238121FD03C08FEF1C
:100F50009FEF28C022FF16C046815781248135812A
:100F60004217530744F4A081B1819D012F5F3F4F89
:100F7000318320838C93268137812F5F3F4F3783C6
:100F8000268310C0EB01092F182F0084F185E02D76
:100F90000995892BE1F68E819F8101969F838E832F
:100FA000812F902FDF91CF911F910F910895FA011A
:100FB000AA27283051F1203181F1E8946F936E7F98
:100FC0006E5F7F4F8F4F9F4FAF4FB1E03ED0B4E089
:100FD0003CD0670F781F891F9A1FA11D680F791FCA
:100FE0008A1F911DA11D6A0F711D811D911DA11DDB
:100FF00020D009F468943F912AE0269F11243019EB
:10100000305D3193DEF6CF010895462F4770405D85
:101010004193B3E00FD0C9F7F6CF462F4F70405D34
:101020004A3318F0495D31FD4052419302D0A9F78F
:10103000EACFB4E0A6959795879577956795BA9589
:10104000C9F700976105710508959B01AC010A2E4F
:1010500006945795479537952795BA95C9F7620F26
:10106000731F841F951FA01D0895052E97FB1EF466
:1010700000940E944C0857FD07D00E949E0807FC70
:1010800003D04EF40C944C08509540953095219522
:101090003F4F4F4F5F4F08959095809570956195A4
:1010A0007F4F8F4F9F4F08950E94C008A59F900DBE
:1010B000B49F900DA49F800D911D11240895B7FF3A
:1010C0000C9454080E945408821B930B08952F928D
:1010D0003F924F925F926F927F928F929F92AF92C8
:1010E000BF92CF92DF92EF92FF920F931F93CF9315
:1010F000DF93CDB7DEB7CA1BDB0B0FB6F894DEBFAC
:101100000FBECDBF09942A88398848885F846E84D1
:101110007D848C849B84AA84B984C884DF80EE801B
:10112000FD800C811B81AA81B981CE0FD11D0FB624
:10113000F894DEBF0FBECDBFED010895A1E21A2ED7
:10114000AA1BBB1BFD010DC0AA1FBB1FEE1FFF1F6B
:10115000A217B307E407F50720F0A21BB30BE40BBB
:10116000F50B661F771F881F991F1A9469F7609502
:101170007095809590959B01AC01BD01CF010895BC
:10118000A29FB001B39FC001A39F700D811D1124C8
:10119000911DB29F700D811D1124911D0895F89429
:0211A000FFCF7F
:1011A20001000000000020022000782076616C75AA
:1011B200652069732025640A20792076616C756543
:1011C2002069732025640A005374617274696E6722
:1011D200205352414D20746573742E2E2E00577287
:1011E200697465207068617365206572726F723A06
:1011F200206578745F72616D5B2534645D203D20EB
:1012020025303258202873686F756C64206265201F
:1012120025303258290A0052657472696576616C0C
:10122200207068617365206572726F723A2065780A
:10123200745F72616D5B2534645D203D2025303220
:1012420058202873686F756C6420626520253032DF
:1012520058290A005352414D207465737420636FFC
:101262006D706C657465642077697468200A253432
:1012720064206572726F727320696E20777269746E
:101282006520706861736520616E64200A2534648C
:10129200206572726F727320696E20726574726952
:0E12A2006576616C2070686173650A0A000051
:00000001FF
