:100000000C9438000C944D000C944D000C944D0051
:100010000C944D000C944D000C944D000C944D002C
:100020000C944D000C944D000C944D000C944D001C
:100030000C944D000C944D000C944D000C944D000C
:100040000C944D000C944D000C944D000C944D00FC
:100050000C944D000C944D000C944D000C944D00EC
:100060000C944D000C944D000C944D000C944D00DC
:1000700011241FBECFEFD4E0DEBFCDBF11E0A0E062
:10008000B1E0E8EAF1E002C005900D92A431B107B9
:10009000D9F70E944F000C94D2000C940000CF932B
:1000A000DF93CDB7DEB780E895E20E945C0080E088
:1000B00091E00E94A900FFCFCF93DF9300D0CDB78E
:1000C000DEB79A83898380E490E029813A81232FE7
:1000D0003327FC01208389E290E02981FC01208301
:1000E0008AE290E028E1FC01208380E490E02EE8A1
:1000F000FC0120830F900F90DF91CF910895CF9353
:10010000DF931F92CDB7DEB789838BE290E0FC01CD
:100110008081882F90E080729927892BB1F38CE23F
:1001200090E02981FC0120830F90DF91CF91089509
:10013000CF93DF93CDB7DEB78BE290E0FC018081F7
:100140008823D4F78CE290E0FC018081DF91CF918D
:100150000895CF93DF9300D01F92CDB7DEB79B8376
:100160008A8319820EC08981882F90E02A813B8181
:10017000820F931FFC0180810E947F0089818F5F25
:1001800089838981882F90E02A813B81820F931F88
:10019000FC018081882339F70F900F900F90DF9139
:0801A000CF910895F894FFCF00
:1001A800555341525420697320776F726B696E679B
:0401B8002121000001
:00000001FF
