:100000000C9438000C9455000C9455000C94550039
:100010000C9455000C9455000C9455000C9455000C
:100020000C9455000C9455000C9455000C945500FC
:100030000C9455000C9455000C9455000C945500EC
:100040000C9455000C9455000C9455000C945500DC
:100050000C9455000C9455000C9455000C945500CC
:100060000C9455000C9455000C9455000C945500BC
:1000700011241FBECFEFD4E0DEBFCDBF11E0A0E062
:10008000B1E0E6E3FBE002C005900D92A630B107B7
:10009000D9F721E0A6E0B1E001C01D92A031B2077E
:1000A000E1F70E94A9010C9499050C940000CF93EC
:1000B000DF93CDB7DEB786E290E026E230E0F901CB
:1000C00020812E7FFC01208380E0DF91CF91089575
:1000D000CF93DF93CDB7DEB7A4970FB6F894DEBF0A
:1000E0000FBECDBF9CA38BA380E094E19A8389834C
:1000F0008BA19CA18230910591F08330910518F479
:10010000019739F01EC08330910579F0049799F07A
:1001100018C089819A8124E0FC01208314C0898160
:100120009A8125E0FC0120830EC089819A8126E016
:10013000FC01208308C089819A8127E0FC0120838B
:1001400002C080E0FDC085E290E0FC018081882F44
:1001500090E081709927892BB1F780E090E0A8ECBE
:10016000B2E48B839C83AD83BE8327E137EB41ED03
:100170005FE36B817C818D819E810E949103DC0114
:10018000CB018F839887A987BA8722E539E44DE9A7
:100190005FE36B817C818D819E810E949103DC01F4
:1001A000CB018B879C87AD87BE8720E030E040E89D
:1001B0005FE36F81788589859A850E947102882323
:1001C0001CF481E08F87B2C020E03FEF4FE757E497
:1001D0006B857C858D859E850E948C0318160CF09E
:1001E0007BC020E030E04AE754E46B817C818D8164
:1001F0009E810E947602DC01CB01888B998BAA8BB1
:10020000BB8B2AE939E949E954E4688979898A8903
:100210009B890E949103DC01CB018C8B9D8BAE8B63
:10022000BF8B20E030E040E85FE36C897D898E89F8
:100230009F890E94710288232CF481E090E0998FBD
:10024000888F3FC020E03FEF4FE757E46C897D89FE
:100250008E899F890E948C0318164CF520E030E0AF
:1002600040E251E4688979898A899B890E949103D7
:10027000DC01CB01BC01CD010E94E802DC01CB0115
:10028000998F888F0FC08AE790E09B8F8A8F8A8D25
:100290009B8D0197F1F79B8F8A8F888D998D0197A0
:1002A000998F888F888D998D892B69F73FC06C89CC
:1002B0007D898E899F890E94E802DC01CB01998F9C
:1002C000888F888D998D9D8F8C8F8C8D9D8D0197BA
:1002D000F1F79D8F8C8F2AC020E030E04FE753E488
:1002E0006F81788589859A850E948C031816ACF4F5
:1002F0006B857C858D859E850E94E802DC01CB01A3
:100300009F8F8E8F8E8D9F8D99A388A388A199A191
:100310000197F1F799A388A30FC06F81788589852C
:100320009A850E94E802DC01CB018F878F858AA322
:100330008AA18A95F1F78AA389819A81FC0180813B
:10034000A4960FB6F894DEBF0FBECDBFDF91CF915C
:100350000895CF93DF93CDB7DEB70E94DB010E94F3
:10036000570088E30E941E02FCCFCF93DF9300D09A
:1003700000D01F92CDB7DEB79D838C8380E098E1DB
:100380009A83898329813A818C819D81820F931F71
:10039000FC0180818B838B810F900F900F900F90C9
:1003A0000F90DF91CF910895CF93DF93CDB7DEB754
:1003B000DF91CF910895CF93DF93CDB7DEB780E47F
:1003C00090E0FC01108289E290E02FE1FC012083A3
:1003D0008BE290E02BE230E0F90120812D7FFC01DF
:1003E00020838AE290E02AE230E0F901208128604F
:1003F000FC0120838AE290E02AE230E0F9012081CA
:100400002061FC01208380E490E020E430E0F901E9
:1004100020812460FC01208380E490E020E430E02F
:10042000F90120812260FC01208367E372E08EE104
:1004300092E00E94FE03DF91CF910895CF93DF9366
:100440001F92CDB7DEB789838BE290E0FC018081FB
:10045000882F90E080729927892BB1F38CE290E08D
:100460002981FC0120830F90DF91CF910895CF93D4
:10047000DF93CDB7DEB78BE290E0FC01808188236B
:10048000D4F78CE290E0FC018081DF91CF91089558
:10049000CF93DF9300D01F92CDB7DEB79B838A83C3
:1004A00019820EC08981882F90E02A813B81820FBA
:1004B000931FFC0180810E941E0289818F5F8983C6
:1004C0008981882F90E02A813B81820F931FFC0154
:1004D0008081882339F70F900F900F90DF91CF9193
:1004E00008950E94170308F481E008950E948A028B
:1004F0000C9452030E944B0358F00E94440340F0B6
:1005000029F45F3F29F00C943B0351110C948603AE
:100510000C9441030E94630368F39923B1F35523BC
:1005200091F3951B550BBB27AA2762177307840706
:1005300038F09F5F5F4F220F331F441FAA1FA9F39C
:1005400035D00E2E3AF0E0E832D091505040E6958A
:10055000001CCAF72BD0FE2F29D0660F771F881FEB
:10056000BB1F261737074807AB07B0E809F0BB0BDE
:10057000802DBF01FF2793585F4F3AF09E3F5105F2
:1005800078F00C943B030C9486035F3FE4F3983EB1
:10059000D4F3869577956795B795F7959F5FC9F7DB
:1005A000880F911D9695879597F90895E1E0660F5C
:1005B000771F881FBB1F621773078407BA0720F0D5
:1005C000621B730B840BBA0BEE1F88F7E09508953E
:1005D0000E946B0388F09F5798F0B92F9927B75165
:1005E000B0F0E1F0660F771F881F991F1AF0BA95D7
:1005F000C9F714C0B13091F00E948503B1E00895AD
:100600000C948503672F782F8827B85F39F0B93F9E
:10061000CCF3869577956795B395D9F73EF4909589
:100620008095709561957F4F8F4F9F4F0895990FDB
:100630000008550FAA0BE0E8FEEF16161706E807AC
:10064000F907C0F012161306E407F50798F0621BCD
:10065000730B840B950B39F40A2661F0232B242BA2
:10066000252B21F408950A2609F4A140A6958FEFC1
:10067000811D811D089597F99F6780E870E060E013
:1006800008959FEF80EC089500240A94161617062B
:1006900018060906089500240A9412161306140673
:1006A00005060895092E0394000C11F4882352F0D6
:1006B000BB0F40F4BF2B11F460FF04C06F5F7F4F8E
:1006C0008F4F9F4F089557FD9058440F551F59F075
:1006D0005F3F71F04795880F97FB991F61F09F3F2F
:1006E00079F087950895121613061406551FF2CF58
:1006F0004695F1DF08C0161617061806991FF1CFA8
:1007000086957105610508940895E894BB276627CE
:100710007727CB0197F908950E94170308F48FEF0C
:1007200008950E94A4030C9452030E94440338F0DD
:100730000E944B0320F0952311F00C943B030C9482
:10074000410311240C9486030E94630370F3959F68
:10075000C1F3950F50E0551F629FF001729FBB27B8
:10076000F00DB11D639FAA27F00DB11DAA1F649F54
:100770006627B00DA11D661F829F2227B00DA11D07
:10078000621F739FB00DA11D621F839FA00D611D8D
:10079000221F749F3327A00D611D231F849F600DAE
:1007A000211D822F762F6A2F11249F5750409AF0D7
:1007B000F1F088234AF0EE0FFF1FBB1F661F771F63
:1007C000881F91505040A9F79E3F510580F00C942E
:1007D0003B030C9486035F3FE4F3983ED4F3869585
:1007E00077956795B795F795E7959F5FC1F7FE2BCE
:1007F000880F911D9695879597F908950F931F93EC
:10080000CF93DF93009731F46115710519F480E0FF
:1008100090E03AC08B01EC016EE070E081E090E086
:100820000E944904FC01892B91F380E88383011520
:10083000110571F01387028781E883838091060197
:1008400090910701892B21F4F0930701E0930601B1
:100850002097C9F0D187C08783818260838380918C
:10086000080190910901892B71F4F0930901E0933B
:10087000080180910A0190910B01892B21F4F093DA
:100880000B01E0930A01CF01DF91CF911F910F91EE
:1008900008950F931F93CF93DF93869F8001879FC7
:1008A000100D969F100D1124C8010E946504EC01E3
:1008B000009729F0A80160E070E00E949205CE0147
:1008C000DF91CF911F910F910895CF93DF938230E5
:1008D000910510F482E090E0E0910E01F0910F019B
:1008E00020E030E0C0E0D0E0309711F1408151814C
:1008F00048175907C0F04817590761F4828193815E
:10090000209719F09B838A832BC090930F018093CB
:100910000E0126C02115310519F04217530718F4AE
:100920009A01BE01DF01EF010280F381E02DDCCFEF
:100930002115310509F1281B390B2430310590F4BC
:1009400012968D919C9113976115710521F0FB0111
:100950009383828304C090930F0180930E01FD0165
:10096000329644C0FD01E20FF31F81939193225010
:1009700031092D933C933AC020910C0130910D0127
:10098000232B41F4209102013091030130930D019A
:1009900020930C01209100013091010121153105B6
:1009A00041F42DB73EB74091040150910501241B3D
:1009B000350BE0910C01F0910D01E217F307A0F463
:1009C0002E1B3F0B2817390778F0AC014E5F5F4FA5
:1009D0002417350748F04E0F5F1F50930D014093C9
:1009E0000C018193919302C0E0E0F0E0CF01DF9130
:1009F000CF9108950F931F93CF93DF93009709F43E
:100A00008CC0FC0132971382128200910E0110916A
:100A10000F010115110581F420813181820F931F8F
:100A200020910C0130910D012817390779F5F093C9
:100A30000D01E0930C0171C0D80140E050E0AE1709
:100A4000BF0750F412962D913C911397AD012115DB
:100A5000310509F1D901F3CF9D01DA0133832283F6
:100A600060817181860F971F8217930769F4EC01EB
:100A700028813981260F371F2E5F3F4F3183208316
:100A80008A819B8193838283452B29F4F0930F0104
:100A9000E0930E0142C01396FC93EE931297ED0182
:100AA000499159919E01240F351FE217F30771F404
:100AB00080819181840F951F029611969C938E934D
:100AC0008281938113969C938E931297E0E0F0E0DD
:100AD000D80112968D919C911397009719F0F80107
:100AE0008C01F6CF8D919C9198012E5F3F4F820F24
:100AF000931F20910C0130910D012817390769F4DB
:100B0000309729F410920F0110920E0102C0138247
:100B1000128210930D0100930C01DF91CF911F9170
:100B20000F910895DC0101C06D9341505040E0F7F2
:060B30000895F894FFCFC8
:060B360000001001200088
:00000001FF
